{
  "contractName": "FirmaCoin",
  "abi": [
    {
      "inputs": [],
      "stateMutability": "nonpayable",
      "type": "constructor"
    },
    {
      "anonymous": false,
      "inputs": [
        {
          "indexed": true,
          "internalType": "address",
          "name": "_from",
          "type": "address"
        },
        {
          "indexed": true,
          "internalType": "address",
          "name": "_to",
          "type": "address"
        },
        {
          "indexed": false,
          "internalType": "uint256",
          "name": "_value",
          "type": "uint256"
        }
      ],
      "name": "Transfer",
      "type": "event"
    },
    {
      "inputs": [],
      "name": "land",
      "outputs": [
        {
          "internalType": "uint256",
          "name": "",
          "type": "uint256"
        }
      ],
      "stateMutability": "view",
      "type": "function",
      "constant": true
    },
    {
      "inputs": [
        {
          "internalType": "address",
          "name": "receiver",
          "type": "address"
        },
        {
          "internalType": "uint256",
          "name": "amount",
          "type": "uint256"
        }
      ],
      "name": "sendCoin",
      "outputs": [
        {
          "internalType": "bool",
          "name": "sufficient",
          "type": "bool"
        }
      ],
      "stateMutability": "nonpayable",
      "type": "function"
    },
    {
      "inputs": [
        {
          "internalType": "address",
          "name": "addr",
          "type": "address"
        }
      ],
      "name": "getBalanceInEth",
      "outputs": [
        {
          "internalType": "uint256",
          "name": "",
          "type": "uint256"
        }
      ],
      "stateMutability": "view",
      "type": "function",
      "constant": true
    },
    {
      "inputs": [
        {
          "internalType": "address",
          "name": "addr",
          "type": "address"
        }
      ],
      "name": "getBalance",
      "outputs": [
        {
          "internalType": "uint256",
          "name": "",
          "type": "uint256"
        }
      ],
      "stateMutability": "view",
      "type": "function",
      "constant": true
    },
    {
      "inputs": [
        {
          "internalType": "address",
          "name": "addr",
          "type": "address"
        }
      ],
      "name": "getLand",
      "outputs": [
        {
          "internalType": "uint256",
          "name": "",
          "type": "uint256"
        }
      ],
      "stateMutability": "view",
      "type": "function",
      "constant": true
    }
  ],
  "bytecode": "0x608060405234801561001057600080fd5b50612710600460003273ffffffffffffffffffffffffffffffffffffffff1673ffffffffffffffffffffffffffffffffffffffff1681526020019081526020016000208190555060096000819055506106a28061006e6000396000f3fe608060405234801561001057600080fd5b50600436106100575760003560e01c8063614e4cdb1461005c5780637bd703e81461008c5780638c980129146100bc57806390b98a11146100da578063f8b2cb4f1461010a575b600080fd5b610076600480360381019061007191906103f1565b61013a565b6040516100839190610437565b60405180910390f35b6100a660048036038101906100a191906103f1565b610145565b6040516100b39190610437565b60405180910390f35b6100c46101d1565b6040516100d19190610437565b60405180910390f35b6100f460048036038101906100ef919061047e565b6101d7565b60405161010191906104d9565b60405180910390f35b610124600480360381019061011f91906103f1565b610345565b6040516101319190610437565b60405180910390f35b600080549050919050565b600073__ConvertLib____________________________6396e4ee3d61016a84610345565b60026040518363ffffffff1660e01b8152600401610189929190610548565b602060405180830381865af41580156101a6573d6000803e3d6000fd5b505050506040513d601f19601f820116820180604052508101906101ca9190610586565b9050919050565b60005481565b600081600460003373ffffffffffffffffffffffffffffffffffffffff1673ffffffffffffffffffffffffffffffffffffffff168152602001908152602001600020541015610229576000905061033f565b81600460003373ffffffffffffffffffffffffffffffffffffffff1673ffffffffffffffffffffffffffffffffffffffff168152602001908152602001600020600082825461027891906105e2565b9250508190555081600460008573ffffffffffffffffffffffffffffffffffffffff1673ffffffffffffffffffffffffffffffffffffffff16815260200190815260200160002060008282546102ce9190610616565b925050819055508273ffffffffffffffffffffffffffffffffffffffff163373ffffffffffffffffffffffffffffffffffffffff167fddf252ad1be2c89b69c2b068fc378daa952ba7f163c4a11628f55a4df523b3ef846040516103329190610437565b60405180910390a3600190505b92915050565b6000600460008373ffffffffffffffffffffffffffffffffffffffff1673ffffffffffffffffffffffffffffffffffffffff168152602001908152602001600020549050919050565b600080fd5b600073ffffffffffffffffffffffffffffffffffffffff82169050919050565b60006103be82610393565b9050919050565b6103ce816103b3565b81146103d957600080fd5b50565b6000813590506103eb816103c5565b92915050565b6000602082840312156104075761040661038e565b5b6000610415848285016103dc565b91505092915050565b6000819050919050565b6104318161041e565b82525050565b600060208201905061044c6000830184610428565b92915050565b61045b8161041e565b811461046657600080fd5b50565b60008135905061047881610452565b92915050565b600080604083850312156104955761049461038e565b5b60006104a3858286016103dc565b92505060206104b485828601610469565b9150509250929050565b60008115159050919050565b6104d3816104be565b82525050565b60006020820190506104ee60008301846104ca565b92915050565b6104fd8161041e565b82525050565b6000819050919050565b6000819050919050565b600061053261052d61052884610503565b61050d565b61041e565b9050919050565b61054281610517565b82525050565b600060408201905061055d60008301856104f4565b61056a6020830184610539565b9392505050565b60008151905061058081610452565b92915050565b60006020828403121561059c5761059b61038e565b5b60006105aa84828501610571565b91505092915050565b7f4e487b7100000000000000000000000000000000000000000000000000000000600052601160045260246000fd5b60006105ed8261041e565b91506105f88361041e565b92508282101561060b5761060a6105b3565b5b828203905092915050565b60006106218261041e565b915061062c8361041e565b9250827fffffffffffffffffffffffffffffffffffffffffffffffffffffffffffffffff03821115610661576106606105b3565b5b82820190509291505056fea2646970667358221220fd9472e20311e8e35015fa07d4c28885cb300404576a093149a24a7b27713c7264736f6c634300080d0033",
  "immutableReferences": {},
  "source": "// SPDX-License-Identifier: MIT\n// Tells the Solidity compiler to compile only from v0.8.13 to v0.9.0\npragma solidity ^0.8.13;\n\nimport \"./ConvertLib.sol\";\n\n// This is just a simple example of a coin-like contract.\n// It is not ERC20 compatible and cannot be expected to talk to other\n// coin/token contracts.\n\ncontract FirmaCoin {\n    uint public land;\n    uint corn;\n    uint tomato;\n    uint eggplant;\n\n    mapping(address => uint) balances;\n\n    event Transfer(address indexed _from, address indexed _to, uint256 _value);\n\n    constructor() {\n        balances[tx.origin] = 10000;\n        land = 9;\n    }\n\n    function sendCoin(address receiver, uint amount)\n        public\n        returns (bool sufficient)\n    {\n        if (balances[msg.sender] < amount) return false;\n        balances[msg.sender] -= amount;\n        balances[receiver] += amount;\n        emit Transfer(msg.sender, receiver, amount);\n        return true;\n    }\n\n    function getBalanceInEth(address addr) public view returns (uint) {\n        return ConvertLib.convert(getBalance(addr), 2);\n    }\n\n    function getBalance(address addr) public view returns (uint) {\n        return balances[addr];\n    }\n\n    function getLand(address addr) public view returns (uint) {\n        return land;\n    }\n}\n",
  "sourcePath": "/home/mcbmanalo/hackathon/hackathon/contracts/FirmaCoin.sol",
  "compiler": {
    "name": "solc",
    "version": "0.8.13+commit.abaa5c0e.Emscripten.clang"
  },
  "schemaVersion": "3.4.10",
  "updatedAt": "2022-11-12T16:27:18.822Z",
  "networkType": "ethereum",
  "devdoc": {
    "kind": "dev",
    "methods": {},
    "version": 1
  },
  "userdoc": {
    "kind": "user",
    "methods": {},
    "version": 1
  }
}