{
  "contractName": "FirmaCoin",
  "abi": [
    {
      "inputs": [],
      "stateMutability": "nonpayable",
      "type": "constructor"
    },
    {
      "anonymous": false,
      "inputs": [
        {
          "indexed": true,
          "internalType": "address",
          "name": "_from",
          "type": "address"
        },
        {
          "indexed": false,
          "internalType": "uint256",
          "name": "amount",
          "type": "uint256"
        }
      ],
      "name": "BuyCornTransaction",
      "type": "event"
    },
    {
      "anonymous": false,
      "inputs": [
        {
          "indexed": true,
          "internalType": "address",
          "name": "_from",
          "type": "address"
        },
        {
          "indexed": false,
          "internalType": "uint256",
          "name": "amount",
          "type": "uint256"
        }
      ],
      "name": "BuyEggplantTransaction",
      "type": "event"
    },
    {
      "anonymous": false,
      "inputs": [
        {
          "indexed": true,
          "internalType": "address",
          "name": "_from",
          "type": "address"
        },
        {
          "indexed": false,
          "internalType": "uint256",
          "name": "amount",
          "type": "uint256"
        }
      ],
      "name": "BuyTomatoTransaction",
      "type": "event"
    },
    {
      "anonymous": false,
      "inputs": [
        {
          "indexed": false,
          "internalType": "address",
          "name": "indexed_from",
          "type": "address"
        },
        {
          "indexed": true,
          "internalType": "address",
          "name": "_to",
          "type": "address"
        }
      ],
      "name": "SellCrops",
      "type": "event"
    },
    {
      "anonymous": false,
      "inputs": [
        {
          "indexed": true,
          "internalType": "address",
          "name": "_from",
          "type": "address"
        },
        {
          "indexed": true,
          "internalType": "address",
          "name": "_to",
          "type": "address"
        },
        {
          "indexed": false,
          "internalType": "uint256",
          "name": "_value",
          "type": "uint256"
        }
      ],
      "name": "Transfer",
      "type": "event"
    },
    {
      "inputs": [
        {
          "internalType": "address",
          "name": "receiver",
          "type": "address"
        },
        {
          "internalType": "uint256",
          "name": "amount",
          "type": "uint256"
        }
      ],
      "name": "sendCoin",
      "outputs": [
        {
          "internalType": "bool",
          "name": "sufficient",
          "type": "bool"
        }
      ],
      "stateMutability": "nonpayable",
      "type": "function"
    },
    {
      "inputs": [
        {
          "internalType": "address",
          "name": "addr",
          "type": "address"
        }
      ],
      "name": "getBalanceInEth",
      "outputs": [
        {
          "internalType": "uint256",
          "name": "",
          "type": "uint256"
        }
      ],
      "stateMutability": "view",
      "type": "function",
      "constant": true
    },
    {
      "inputs": [
        {
          "internalType": "address",
          "name": "addr",
          "type": "address"
        }
      ],
      "name": "getBalance",
      "outputs": [
        {
          "internalType": "uint256",
          "name": "",
          "type": "uint256"
        }
      ],
      "stateMutability": "view",
      "type": "function",
      "constant": true
    },
    {
      "inputs": [
        {
          "internalType": "address",
          "name": "addr",
          "type": "address"
        }
      ],
      "name": "getLand",
      "outputs": [
        {
          "internalType": "uint256",
          "name": "",
          "type": "uint256"
        }
      ],
      "stateMutability": "view",
      "type": "function",
      "constant": true
    },
    {
      "inputs": [
        {
          "internalType": "address",
          "name": "addr",
          "type": "address"
        },
        {
          "internalType": "uint256",
          "name": "amount",
          "type": "uint256"
        }
      ],
      "name": "buyCorn",
      "outputs": [
        {
          "internalType": "uint256",
          "name": "",
          "type": "uint256"
        }
      ],
      "stateMutability": "nonpayable",
      "type": "function"
    },
    {
      "inputs": [
        {
          "internalType": "address",
          "name": "addr",
          "type": "address"
        },
        {
          "internalType": "uint256",
          "name": "amount",
          "type": "uint256"
        }
      ],
      "name": "buyTomato",
      "outputs": [
        {
          "internalType": "uint256",
          "name": "",
          "type": "uint256"
        }
      ],
      "stateMutability": "nonpayable",
      "type": "function"
    },
    {
      "inputs": [
        {
          "internalType": "address",
          "name": "addr",
          "type": "address"
        },
        {
          "internalType": "uint256",
          "name": "amount",
          "type": "uint256"
        }
      ],
      "name": "buyEggplant",
      "outputs": [
        {
          "internalType": "uint256",
          "name": "",
          "type": "uint256"
        }
      ],
      "stateMutability": "nonpayable",
      "type": "function"
    },
    {
      "inputs": [
        {
          "internalType": "address",
          "name": "addr",
          "type": "address"
        }
      ],
      "name": "sellCorn",
      "outputs": [
        {
          "internalType": "uint256",
          "name": "",
          "type": "uint256"
        }
      ],
      "stateMutability": "nonpayable",
      "type": "function"
    }
  ],
  "bytecode": "0x608060405234801561001057600080fd5b50612710600360003273ffffffffffffffffffffffffffffffffffffffff1673ffffffffffffffffffffffffffffffffffffffff168152602001908152602001600020819055506000600460003273ffffffffffffffffffffffffffffffffffffffff1673ffffffffffffffffffffffffffffffffffffffff168152602001908152602001600020819055506000600560003273ffffffffffffffffffffffffffffffffffffffff1673ffffffffffffffffffffffffffffffffffffffff168152602001908152602001600020819055506000600660003273ffffffffffffffffffffffffffffffffffffffff1673ffffffffffffffffffffffffffffffffffffffff168152602001908152602001600020819055506009600760003273ffffffffffffffffffffffffffffffffffffffff1673ffffffffffffffffffffffffffffffffffffffff1681526020019081526020016000208190555060016000819055506001808190555060016002819055506111da806101916000396000f3fe608060405234801561001057600080fd5b50600436106100885760003560e01c806390b98a111161005b57806390b98a111461014d578063eaef06fc1461017d578063f871218a146101ad578063f8b2cb4f146101dd57610088565b80632b43925b1461008d578063614e4cdb146100bd5780637bd703e8146100ed57806384fc323d1461011d575b600080fd5b6100a760048036038101906100a29190610de6565b61020d565b6040516100b49190610e2c565b60405180910390f35b6100d760048036038101906100d29190610de6565b6102f7565b6040516100e49190610e2c565b60405180910390f35b61010760048036038101906101029190610de6565b610340565b6040516101149190610e2c565b60405180910390f35b61013760048036038101906101329190610e73565b6103cc565b6040516101449190610e2c565b60405180910390f35b61016760048036038101906101629190610e73565b610677565b6040516101749190610ece565b60405180910390f35b61019760048036038101906101929190610e73565b6107e5565b6040516101a49190610e2c565b60405180910390f35b6101c760048036038101906101c29190610e73565b610a90565b6040516101d49190610e2c565b60405180910390f35b6101f760048036038101906101f29190610de6565b610d3a565b6040516102049190610e2c565b60405180910390f35b60008054600460008473ffffffffffffffffffffffffffffffffffffffff1673ffffffffffffffffffffffffffffffffffffffff1681526020019081526020016000205461025b9190610f18565b600360008473ffffffffffffffffffffffffffffffffffffffff1673ffffffffffffffffffffffffffffffffffffffff16815260200190815260200160002060008282546102a99190610f72565b92505081905550600360008373ffffffffffffffffffffffffffffffffffffffff1673ffffffffffffffffffffffffffffffffffffffff168152602001908152602001600020549050919050565b6000600760008373ffffffffffffffffffffffffffffffffffffffff1673ffffffffffffffffffffffffffffffffffffffff168152602001908152602001600020549050919050565b600073__ConvertLib____________________________6396e4ee3d61036584610d3a565b60026040518363ffffffff1660e01b815260040161038492919061101c565b602060405180830381865af41580156103a1573d6000803e3d6000fd5b505050506040513d601f19601f820116820180604052508101906103c5919061105a565b9050919050565b6000600254826103dc9190610f18565b600360008573ffffffffffffffffffffffffffffffffffffffff1673ffffffffffffffffffffffffffffffffffffffff16815260200190815260200160002054101561045d576040517f08c379a0000000000000000000000000000000000000000000000000000000008152600401610454906110e4565b60405180910390fd5b81600760008573ffffffffffffffffffffffffffffffffffffffff1673ffffffffffffffffffffffffffffffffffffffff1681526020019081526020016000205410156104df576040517f08c379a00000000000000000000000000000000000000000000000000000000081526004016104d690611150565b60405180910390fd5b81600660008573ffffffffffffffffffffffffffffffffffffffff1673ffffffffffffffffffffffffffffffffffffffff168152602001908152602001600020600082825461052e9190610f72565b9250508190555081600760008573ffffffffffffffffffffffffffffffffffffffff1673ffffffffffffffffffffffffffffffffffffffff16815260200190815260200160002060008282546105849190611170565b9250508190555081600360008573ffffffffffffffffffffffffffffffffffffffff1673ffffffffffffffffffffffffffffffffffffffff16815260200190815260200160002060008282546105da9190611170565b925050819055508273ffffffffffffffffffffffffffffffffffffffff167f1d43eb4c329b857e44193d197154e36a2f35a04565204784e9076977b0e31e77836040516106279190610e2c565b60405180910390a2600660008473ffffffffffffffffffffffffffffffffffffffff1673ffffffffffffffffffffffffffffffffffffffff16815260200190815260200160002054905092915050565b600081600360003373ffffffffffffffffffffffffffffffffffffffff1673ffffffffffffffffffffffffffffffffffffffff1681526020019081526020016000205410156106c957600090506107df565b81600360003373ffffffffffffffffffffffffffffffffffffffff1673ffffffffffffffffffffffffffffffffffffffff16815260200190815260200160002060008282546107189190611170565b9250508190555081600360008573ffffffffffffffffffffffffffffffffffffffff1673ffffffffffffffffffffffffffffffffffffffff168152602001908152602001600020600082825461076e9190610f72565b925050819055508273ffffffffffffffffffffffffffffffffffffffff163373ffffffffffffffffffffffffffffffffffffffff167fddf252ad1be2c89b69c2b068fc378daa952ba7f163c4a11628f55a4df523b3ef846040516107d29190610e2c565b60405180910390a3600190505b92915050565b6000600154826107f59190610f18565b600360008573ffffffffffffffffffffffffffffffffffffffff1673ffffffffffffffffffffffffffffffffffffffff168152602001908152602001600020541015610876576040517f08c379a000000000000000000000000000000000000000000000000000000000815260040161086d906110e4565b60405180910390fd5b81600760008573ffffffffffffffffffffffffffffffffffffffff1673ffffffffffffffffffffffffffffffffffffffff1681526020019081526020016000205410156108f8576040517f08c379a00000000000000000000000000000000000000000000000000000000081526004016108ef90611150565b60405180910390fd5b81600560008573ffffffffffffffffffffffffffffffffffffffff1673ffffffffffffffffffffffffffffffffffffffff16815260200190815260200160002060008282546109479190610f72565b9250508190555081600760008573ffffffffffffffffffffffffffffffffffffffff1673ffffffffffffffffffffffffffffffffffffffff168152602001908152602001600020600082825461099d9190611170565b9250508190555081600360008573ffffffffffffffffffffffffffffffffffffffff1673ffffffffffffffffffffffffffffffffffffffff16815260200190815260200160002060008282546109f39190611170565b925050819055508273ffffffffffffffffffffffffffffffffffffffff167f5dea6152db29911d8824d1846c01decf59a5556ed74701f2cbaf5a6da837e9c683604051610a409190610e2c565b60405180910390a2600560008473ffffffffffffffffffffffffffffffffffffffff1673ffffffffffffffffffffffffffffffffffffffff16815260200190815260200160002054905092915050565b6000805482610a9f9190610f18565b600360008573ffffffffffffffffffffffffffffffffffffffff1673ffffffffffffffffffffffffffffffffffffffff168152602001908152602001600020541015610b20576040517f08c379a0000000000000000000000000000000000000000000000000000000008152600401610b17906110e4565b60405180910390fd5b81600760008573ffffffffffffffffffffffffffffffffffffffff1673ffffffffffffffffffffffffffffffffffffffff168152602001908152602001600020541015610ba2576040517f08c379a0000000000000000000000000000000000000000000000000000000008152600401610b9990611150565b60405180910390fd5b81600460008573ffffffffffffffffffffffffffffffffffffffff1673ffffffffffffffffffffffffffffffffffffffff1681526020019081526020016000206000828254610bf19190610f72565b9250508190555081600760008573ffffffffffffffffffffffffffffffffffffffff1673ffffffffffffffffffffffffffffffffffffffff1681526020019081526020016000206000828254610c479190611170565b9250508190555081600360008573ffffffffffffffffffffffffffffffffffffffff1673ffffffffffffffffffffffffffffffffffffffff1681526020019081526020016000206000828254610c9d9190611170565b925050819055508273ffffffffffffffffffffffffffffffffffffffff167ff5ed686c11a9fb2fcbe2f956287314450aa7a42babc10dabfac181aaadb3a9f383604051610cea9190610e2c565b60405180910390a2600460008473ffffffffffffffffffffffffffffffffffffffff1673ffffffffffffffffffffffffffffffffffffffff16815260200190815260200160002054905092915050565b6000600360008373ffffffffffffffffffffffffffffffffffffffff1673ffffffffffffffffffffffffffffffffffffffff168152602001908152602001600020549050919050565b600080fd5b600073ffffffffffffffffffffffffffffffffffffffff82169050919050565b6000610db382610d88565b9050919050565b610dc381610da8565b8114610dce57600080fd5b50565b600081359050610de081610dba565b92915050565b600060208284031215610dfc57610dfb610d83565b5b6000610e0a84828501610dd1565b91505092915050565b6000819050919050565b610e2681610e13565b82525050565b6000602082019050610e416000830184610e1d565b92915050565b610e5081610e13565b8114610e5b57600080fd5b50565b600081359050610e6d81610e47565b92915050565b60008060408385031215610e8a57610e89610d83565b5b6000610e9885828601610dd1565b9250506020610ea985828601610e5e565b9150509250929050565b60008115159050919050565b610ec881610eb3565b82525050565b6000602082019050610ee36000830184610ebf565b92915050565b7f4e487b7100000000000000000000000000000000000000000000000000000000600052601160045260246000fd5b6000610f2382610e13565b9150610f2e83610e13565b9250817fffffffffffffffffffffffffffffffffffffffffffffffffffffffffffffffff0483118215151615610f6757610f66610ee9565b5b828202905092915050565b6000610f7d82610e13565b9150610f8883610e13565b9250827fffffffffffffffffffffffffffffffffffffffffffffffffffffffffffffffff03821115610fbd57610fbc610ee9565b5b828201905092915050565b610fd181610e13565b82525050565b6000819050919050565b6000819050919050565b6000611006611001610ffc84610fd7565b610fe1565b610e13565b9050919050565b61101681610feb565b82525050565b60006040820190506110316000830185610fc8565b61103e602083018461100d565b9392505050565b60008151905061105481610e47565b92915050565b6000602082840312156110705761106f610d83565b5b600061107e84828501611045565b91505092915050565b600082825260208201905092915050565b7f4e6f7420656e6f7567682066756e64732e000000000000000000000000000000600082015250565b60006110ce601183611087565b91506110d982611098565b602082019050919050565b600060208201905081810360008301526110fd816110c1565b9050919050565b7f4e6f7420656e6f756768206c616e642e00000000000000000000000000000000600082015250565b600061113a601083611087565b915061114582611104565b602082019050919050565b600060208201905081810360008301526111698161112d565b9050919050565b600061117b82610e13565b915061118683610e13565b92508282101561119957611198610ee9565b5b82820390509291505056fea264697066735822122067b966f8713b550926ee43742c8fdc4c72f2707a58b87db1af7d6cac0919405164736f6c634300080d0033",
  "immutableReferences": {},
  "source": "// SPDX-License-Identifier: MIT\n// Tells the Solidity compiler to compile only from v0.8.13 to v0.9.0\npragma solidity ^0.8.13;\n\nimport \"./ConvertLib.sol\";\n\n// This is just a simple example of a coin-like contract.\n// It is not ERC20 compatible and cannot be expected to talk to other\n// coin/token contracts.\n\ncontract FirmaCoin {\n    uint cornPrice;\n    uint tomatoPrice;\n    uint eggplantPrice;\n\n    mapping(address => uint) balances;\n    mapping(address => uint) cornSupply;\n    mapping(address => uint) tomatoSupply;\n    mapping(address => uint) eggplantSupply;\n    mapping(address => uint) firmaLand;\n\n    // This event is meant for the Transfer of coin\n    event Transfer(address indexed _from, address indexed _to, uint256 _value);\n\n    // This event is meant when a crop is purchased\n    event BuyCornTransaction(address indexed _from, uint amount);\n    event BuyTomatoTransaction(address indexed _from, uint amount);\n    event BuyEggplantTransaction(address indexed _from, uint amount);\n\n    event SellCrops(address indexed_from, address indexed _to);\n\n    constructor() {\n        balances[tx.origin] = 10000;\n        cornSupply[tx.origin] = 0;\n        tomatoSupply[tx.origin] = 0;\n        eggplantSupply[tx.origin] = 0;\n        firmaLand[tx.origin] = 9;\n        cornPrice = 1;\n        tomatoPrice = 1;\n        eggplantPrice = 1;\n    }\n\n    function sendCoin(address receiver, uint amount)\n        public\n        returns (bool sufficient)\n    {\n        if (balances[msg.sender] < amount) return false;\n        balances[msg.sender] -= amount;\n        balances[receiver] += amount;\n        emit Transfer(msg.sender, receiver, amount);\n        return true;\n    }\n\n    function getBalanceInEth(address addr) public view returns (uint) {\n        return ConvertLib.convert(getBalance(addr), 2);\n    }\n\n    function getBalance(address addr) public view returns (uint) {\n        return balances[addr];\n    }\n\n    // function setLand(address addr) public {\n    //     firmaLand[addr] = 9;\n    // }\n\n    function getLand(address addr) public view returns (uint) {\n        return firmaLand[addr];\n    }\n\n    function buyCorn(address addr, uint amount) public returns (uint) {\n        require(balances[addr] >= (amount * cornPrice), \"Not enough funds.\");\n        require(firmaLand[addr] >= amount, \"Not enough land.\");\n\n        cornSupply[addr] += amount;\n        firmaLand[addr] -= amount;\n        balances[addr] -= amount;\n        emit BuyCornTransaction(addr, amount);\n        return cornSupply[addr];\n    }\n\n    function buyTomato(address addr, uint amount) public returns (uint) {\n        require(balances[addr] >= (amount * tomatoPrice), \"Not enough funds.\");\n        require(firmaLand[addr] >= amount, \"Not enough land.\");\n\n        tomatoSupply[addr] += amount;\n        firmaLand[addr] -= amount;\n        balances[addr] -= amount;\n        emit BuyTomatoTransaction(addr, amount);\n        return tomatoSupply[addr];\n    }\n\n    function buyEggplant(address addr, uint amount) public returns (uint) {\n        require(\n            balances[addr] >= (amount * eggplantPrice),\n            \"Not enough funds.\"\n        );\n        require(firmaLand[addr] >= amount, \"Not enough land.\");\n\n        eggplantSupply[addr] += amount;\n        firmaLand[addr] -= amount;\n        balances[addr] -= amount;\n        emit BuyEggplantTransaction(addr, amount);\n        return eggplantSupply[addr];\n    }\n\n    function sellCorn(address addr) public returns (uint) {\n        balances[addr] += (cornSupply[addr] * cornPrice);\n        return balances[addr];\n    }\n\n    // function sellCorn(address addr) returns () {}\n}\n",
  "sourcePath": "/home/mcbmanalo/hackathon/hackathon/contracts/FirmaCoin.sol",
  "compiler": {
    "name": "solc",
    "version": "0.8.13+commit.abaa5c0e.Emscripten.clang"
  },
  "schemaVersion": "3.4.10",
  "updatedAt": "2022-11-12T19:27:23.942Z",
  "networkType": "ethereum",
  "devdoc": {
    "kind": "dev",
    "methods": {},
    "version": 1
  },
  "userdoc": {
    "kind": "user",
    "methods": {},
    "version": 1
  }
}